:020000040800F2
:10000000F805002045010008F51000089F100008C1
:10001000F11000082D0A0008C323000800000000AA
:10002000000000000000000000000000FD150008B6
:10003000C90A000800000000B512000811170008E6
:100040005F0100085F0100085F0100085F01000810
:100050005F0100085F0100085F0100085F01000800
:100060005F0100085F0100085F0100085F010008F0
:100070005F0100085F0100085F0100085F010008E0
:100080005F0100085F0100085F0100085F010008D0
:100090005F0100085F0100085F0100085F010008C0
:1000A0005F0100085F0100085F0100085F010008B0
:1000B0005F0100085F0100085F0100085F010008A0
:1000C0005F0100085F0100085F0100085F01000890
:1000D0005F010008DD200008812100085F010008A1
:1000E0005F0100085F0100085F0100085F01000870
:1000F0005F0100085F0100085F0100085F01000860
:100100005F0100085F0100085F0100085F0100084F
:100110005F0100085F0100085F0100085F0100083F
:100120005F0100085F0100085F0100085F0100082F
:10013000DFF80CD000F0B8F9004800474D33000854
:10014000F80500200648804706480047FEE7FEE71E
:10015000FEE7FEE7FEE7FEE7FEE7FEE7FEE7FEE777
:1001600015170008310100082DE9FE4F81EA03044C
:1001700004F0004421F0004100944FF0000B23F004
:10018000004350EA01045ED052EA03045BD0C3F39B
:100190000A54C1F30A552C44A4F2F3340194A0FB91
:1001A0000254C1F3130141F48011C3F3130343F468
:1001B000801301FB024400FB034E840A970A44EAC1
:1001C000815447EA8357A4FB076802958D0A05FB13
:1001D00007854FEA932C04FB0C542705029D4FEA38
:1001E000065847EA1637B5EB08056EEB070C870E85
:1001F000920E47EA811742EA8312A7FB0201B6EB8F
:100200000B0164EB00042B0D43EA0C335E1844EB46
:100210001C50DA465146E7FB0201C5F313044FEACE
:100220000B3343EA14534FEA0432019C43EA0603BA
:10023000A4F10C040294009CCDE900B400F0E5F8B0
:1002400003B0BDE8F08F00200146F9E7C10F80EA56
:10025000E0700844CA079623002100F099B80EB553
:10026000C10F80EAE0700844CA07002140F233431E
:100270008DE80E000A460B4600F0C7F803B000BD3B
:100280000EB540F2334102910021CDE900110A463A
:100290000B4600F0BAF803B000BD20F00040C10DDD
:1002A000C0F3160040F400007F2901DA00207047F7
:1002B000962903DCC1F19601C84070479639884001
:1002C000704770B5C1F30A5201F000450024C1F334
:1002D000130140F2FF3341F480119A4201DA002009
:1002E00070BD40F233439A42A2F2334203DC5242E1
:1002F00000F035F800E090402C43F1D0404270BD52
:10030000C1F30A5210B5C1F3130140F2FF3341F4B7
:1003100080119A4201DA002010BD40F233439A4224
:10032000A2F2334203DC524200F019F810BD9040B3
:1003300010BD30B50B46014600202022012409E003
:1003400021FA02F59D4205D303FA02F5491B04FA8E
:1003500002F52844151EA2F10102F1DC30BD202A6D
:1003600004DB203A21FA02F00021704721FA02F35F
:10037000D040C2F12002914008431946704700293D
:10038000A8BF7047401C490008BF20F0010070471B
:1003900010B4B0FA80FC00FA0CF050EA010404BF7B
:1003A00010BC704749B1CCF1200421FA04F411FAD1
:1003B0000CF118BF012121430843A3EB0C01CB1D15
:1003C0004FEA00614FEA102042BF002010BC704786
:1003D00000EBC35010440029A4BF10BC7047401C60
:1003E000490008BF20F0010010BC704710B5141E72
:1003F00073F1000408DA401C41F1000192185B41DE
:100400001A4301D120F0010010BD2DE9F04D9246B4
:100410009B4611B1B1FA81F202E0B0FA80F22032CB
:10042000904600F053F804460F4640EA0A0041EABD
:100430000B0153465A46084313D0114653EA0100B4
:1004400019D0C8F140025046FFF789FF05460E4615
:1004500050465946424600F039F8084305D001207D
:1004600004E020463946BDE8F08D0020054346EA09
:10047000E0762C4337430A986305E40AA0EB0800B2
:100480000022FD0A44EA47540A3002D50020014602
:10049000E9E7010510196941DDE9084500196941DD
:1004A000BDE8F04DA2E70000064C074D06E0E0680D
:1004B00040F0010394E8070098471034AC42F6D3AB
:1004C000FFF73AFEEC3A00080C3B0008202A04DB58
:1004D000203A00FA02F1002070479140C2F1200357
:1004E00020FA03F319439040704721B1826842F02B
:1004F0000102826003E0826822F00102826070479C
:1005000010B504461248844208D10121401500F07C
:1005100049FF0021601500F045FF17E00D488442B7
:1005200008D10121001500F03DFF0021201500F049
:1005300039FF0BE00848844208D10121C80300F0CC
:1005400031FF00214FF4004000F02CFF10BD0000EF
:100550000024014000280140003C014001460020E9
:100560008A6802F004020AB1012000E0002070470E
:100570000146C86C80B270470246002013680B40E9
:100580000BB1012000E000207047014600208A687E
:1005900002F008020AB1012000E0002070470000CC
:1005A00030B502460020002350680F4C20400D79E2
:1005B0000C6844EA05242043506090680B4C2040AE
:1005C000D1E902542C434D7944EA4504204390601C
:1005D000D06A20F470000C7C641EE4B2234340EA2D
:1005E0000350D06230BD0000FFFEF0FFFDF7F1FFC9
:1005F0002DE9F84F0A210C2000F03AFD00900098F8
:10060000FFF73EFE80464FF066320C4BFFF7ACFD25
:10061000064600220A4BFFF7A7FD0446FFF751FEEE
:100620008346FFF713FE82465046FFF736FE054924
:100630000870052002F0E6F8BDE8F88F66664A3FCC
:10064000000059403E000020F0B504460D46002051
:100650000021092D11DDE068A5F10A0606EB460729
:10066000072606FA07F18843A5F10A0606EB4606B7
:1006700003FA06F10843E0600CE0206905EB45074A
:10068000072606FA07F1884305EB450603FA06F14B
:1006900008432061072A0FDA606B561E06EB8607B7
:1006A0001F2606FA07F18843561E06EB860605FA52
:1006B00006F10843606322E00D2A0FDA206BD61F93
:1006C00006EB86071F2606FA07F18843D61F06EBBE
:1006D000860605FA06F10843206310E0E06AA2F1FD
:1006E0000D0606EB86071F2606FA07F18843A2F1DE
:1006F0000D0606EB860605FA06F10843E062F0BD3A
:10070000816841F0080181607047000010B5FFF773
:100710006FFF062002F084FE0821024800F0BCFEB4
:1007200010BD00009800002021B1826842F4A002B0
:10073000826003E0826822F4A002826070478168D0
:1007400041F004018160704710B50446052C34D295
:10075000DFE804F0030E192A2D008021184800F06C
:100760003CFC4021164800F03AFC02F0D1F925E0AB
:100770004021134800F031FC8021114800F02FFC8B
:1007800002F0C6F91AE0C0210D4800F028FC08204C
:1007900002F046FE08210B4800F07EFE052002F024
:1007A00057F802F0A7F909E002F0CCF806E002F0F1
:1007B00063F9052002F04CF800E000BF00BF10BD57
:1007C000002001409800002010B50446052C36D2C8
:1007D000DFE804F0030E1B2C2F002021194800F045
:1007E000FCFB1021174800F0FAFB02F097FA27E013
:1007F0001021144800F0F1FB2021124800F0EFFB1B
:1008000002F0A8F902F08AFA1AE030210D4800F04F
:10081000E6FB0A2002F004FE08210B4800F03CFE33
:10082000052002F015F802F06BFA09E002F092F9E7
:1008300006E002F027FA052002F00AF800E000BF07
:1008400000BF10BD002001409800002010B50446F4
:10085000052C31D2DFE804F0030E192A2D000821FF
:10086000174800F0BAFB0421154800F0B8FB02F06D
:100870005DFB22E00421124800F0AFFB0821104884
:1008800000F0ADFB02F052FB17E00C210C4800F029
:10089000A6FB0C2002F0C4FD08210A4800F0FCFD74
:1008A000052001F0D5FF02F033FB06E002F058FA14
:1008B00003E002F0EFFA00E000BF00BF10BD00004F
:1008C000002001409800002000B587B001214FF4BE
:1008D000047000F057FD4FF4004000F027FD0420A5
:1008E000ADF8040000208DF8070001A9194800F0B8
:1008F00097FA1948FFF704FE002002908DF80C00CB
:100900008DF80D004FF46020049000200590012028
:100910008DF8180002A91048FFF742FE01210E4889
:10092000FFF7E3FD0C48FFF7EBFE00BF0A48FFF7B7
:100930002CFE0028FAD10848FFF701FF00BF064847
:10094000FFF70CFE0028FAD101210348FFF7ECFE67
:1009500007B000BD00100140002401402DE9F04126
:100960002F480679447902F0F5F82E4847788578C3
:100970000F2C01DB01F0F0FE43E02B48007801284A
:1009800000D142E002F0E6F82648477885780F2D3E
:1009900036DABE420CD0AC420AD01EB90120FFF7B5
:1009A00013FF2EE0012E2CD10020FFF70DFF28E0D1
:1009B0007EB9BE420DD1AC420BD0AC4203DD01206A
:1009C000FFF702FF1DE0AC421BDA0020FFF7FCFE40
:1009D00017E0012E0FD1BE420DD1AC420BD0AC427C
:1009E00003DD0020FFF7F0FE0BE0AC4209DA012046
:1009F000FFF7EAFE05E0BE4203D1AC4201D104E0BC
:100A000003E0BE42B9D1AC42B7D100BF0220FFF72C
:100A1000DBFE052001F01CFF01F09EFEBDE8F08129
:100A2000EC0000206A0000209400002000BFFEE7D8
:100A300010B50446052C3DD2DFE804F00312213343
:100A400036004FF480411D4800F0C7FA4FF40041D2
:100A50001A4800F0C4FA1A48007802F0C1FA2AE0F5
:100A60004FF40041154800F0B8FA4FF480411348A4
:100A700000F0B5FA1248007802F0B2FA1BE04FF429
:100A800040410E4800F0ABFA0E2002F0C9FC0821EC
:100A90000C4800F001FD052001F0DAFE02F090FAAA
:100AA00009E001F0FBFE06E002F062FA052001F029
:100AB000CFFE00E000BF00BF10BD000000140140E9
:100AC0004900002098000020704700002DE9F14FF8
:100AD00082B0AA4805794479052001F0B9FE029850
:100AE00030B1012864D002287ED003287DD118E1DE
:100AF00001F028FFA24890F8019086780DB90B2CE0
:100B000003DA012D02D1032C00DB33E14D4501D185
:100B1000B44241D001F016FF994890F801908678D0
:100B2000B9F1000F01D10B2E04DDB9F1010F3ED157
:100B3000032E3CDC4D450CD0B4420AD01DB9012037
:100B4000FFF702FE33E0012D31D10020FFF7FCFD5D
:100B50002DE07DB94D450DD1B4420BD0B44203DD3B
:100B60000120FFF7F1FD22E0B44220DA0020FFF778
:100B7000EBFD1CE0012D1AD14D4518D1B44216D021
:100B8000B44203DD0020FFF7DFFD10E0B4420EDACF
:100B90000120FFF7D9FD0AE04D4508D1B44206D146
:100BA0000220FFF7D1FD01F0D7FD00250024E1E090
:100BB00001F0D0FF734890F801B087780F2C00DB6C
:100BC000D8E05D4501D1BC423CD001F0C3FF6D4887
:100BD00090F801B087780F2F42DA5D450FD0BC4204
:100BE0000DD035B9012001E03BE0C2E0FFF7ECFD9C
:100BF00036E0012D34D10020FFF7E6FD30E07DB96D
:100C00005D450DD1BC420BD0BC4203DD0120FFF796
:100C1000DBFD25E0BC4223DA0020FFF7D5FD1FE015
:100C2000012D1DD15D451BD1BC4219D0BC4203DD55
:100C30000020FFF7C9FD13E0BC4211DA0120FFF7E5
:100C4000C3FD0DE05D450BD1BC4209D10220FFF789
:100C5000BBFD052001F0FCFD01F07EFD0025002418
:100C600088E002F07DF8484840780190464890F8C6
:100C700002800B2C00DB7DE00198854201D14445C8
:100C80003FD002F06DF84048407801903E4890F81F
:100C90000280B8F10A0F43DA019885420CD044452E
:100CA0000AD01DB90120FFF7D1FD39E0012D37D160
:100CB0000020FFF7CBFD33E085B9019885420DD1C7
:100CC00044450BD0444503DD0120FFF7BFFD27E07D
:100CD000444525DA0020FFF7B9FD21E0012D1FD1A1
:100CE000019885421CD144451AD0444503DD0020BB
:100CF000FFF7ACFD14E0444512DA0120FFF7A6FD32
:100D00000EE0019885420BD1444509D10220FFF73E
:100D10009DFD052001F09CFD01F01EFD0025002435
:100D200028E001F0BBFD194890F800A0544513D00D
:100D300001F0B4FD154890F800A0BAF1460F17DC99
:100D4000544503DD0020FFF773FE11E054450FDA30
:100D50000120FFF76DFE0BE0544509D10220FFF79B
:100D600067FE052001F074FD01F0F6FC002500246B
:100D700000E000BF00BFBDE8FE8F0000EC000020D7
:100D8000560000206A0000207E000020480000205D
:100D900070B502F00DFC054635B1012D10D0022DC5
:100DA0001AD0032D31D123E0AA2019490870084632
:100DB000007818490870A12048700020887025E04C
:100DC000AB20134908700846007812490870A1202A
:100DD00048700020887019E0AC200D490870084662
:100DE00000780C490870A1204870002088700DE040
:100DF000002405E00748005D07490855601CC4B29F
:100E0000064800788442F5DB00E000BF00BF70BDFB
:100E100092000020AC000020EC0000200400002024
:100E20002DE9F04102460025002600200023002481
:100E3000002791F803C00CF00F0591F803C00CF0E7
:100E4000100CBCF1000F03D091F802C04CEA05056C
:100E500091F800C0BCF1000F31D0146800202BE0E5
:100E60004FF0010C0CFA00F3B1F800C00CEA0306D5
:100E70009E4220D183004FF00F0C0CFA03F7BC43C5
:100E800005FA03FC4CEA040491F803C0BCF1280FF6
:100E900006D14FF0010C0CFA00FCC2F814C00AE0B5
:100EA00091F803C0BCF1480F05D14FF0010C0CFACA
:100EB00000FCC2F810C0401C0828D1D31460B1F85F
:100EC00000C0BCF1FF0F34DD546800202EE000F1BB
:100ED000080C4FF0010808FA0CF3B1F800C00CEA56
:100EE00003069E4221D183004FF00F0C0CFA03F74A
:100EF000BC4305FA03FC4CEA040491F803C0BCF1BE
:100F0000280F05D100F1080C08FA0CF8C2F814807B
:100F100091F803C0BCF1480F07D100F1080C4FF065
:100F2000010808FA0CF8C2F81080401C0828CED33B
:100F30005460BDE8F0810000F0B50A4600230024AB
:100F40000021002500F00046B6F1004F02D11D4EF1
:100F5000F16901E01B4E7168C0F3034583B200F4F0
:100F60004016B6F5401F08D121F07061154E766825
:100F700026F07066134F7E6012E000F48016B6F51E
:100F8000801F06D1032606FA05F4A14341F07061E3
:100F900006E0460D360103FA06F6B14341F07061F2
:100FA00022B1460D360103FA06F6314300F0004641
:100FB000B6F1004F02D1034EF16101E0014E7160C4
:100FC000F0BD0000000001400246002093680B4085
:100FD0000BB1012000E000207047416170470161C2
:100FE00070474FF6FF710180022181700421C170AA
:100FF00070470000F0B502460B460020FF24FF2595
:1010000009E012F8016B86EA05010A4E765C86EA71
:101010000405094E745C1E1EA3F10107BBB2F0D19A
:101020004619B0B24FF6FF7606EA00200619B0B2B4
:10103000F0BD0000EC380008EC39000810B504469B
:101040000723012221460948FFF7FEFA012107483C
:10105000FFF76AFB00BF02210448FFF78DFA002862
:10106000F9D00248FFF784FA10BD000000240140C7
:101070002DE9F04107460C460025002608E03846D9
:10108000FFF7DCFF0544052001F0BCFB701CC6B275
:10109000A642F4DBB5FBF4F080B2BDE8F08100BFFE
:1010A000FEE7000008B50121482000F06BF9202080
:1010B000ADF8000010208DF8030003208DF8020029
:1010C00069460948FFF7ACFE20210748FFF787FF74
:1010D0002020ADF8000069460448FFF7A1FE20215A
:1010E0000248FFF77CFF08BD000C014000180140DA
:1010F00000BFFEE77047000070B5002100230F22FB
:10110000C47804B3154C246804F4E064C4F5E064C6
:10111000210AC1F10403CA40447804FA03F1847837
:101120001440214309010E4C0678A155047804F0BF
:101130001F050124AC4005786D11AD0005F1E025D7
:10114000C5F8004109E0047804F01F050124AC4013
:10115000044D0678761145F8264070BD0CED00E090
:1011600000E400E080E100E002490143024A11602E
:10117000704700000000FA050CED00E008B5012101
:10118000080200F0FFF84FF4FC40ADF80000282002
:101190008DF8030069460248FFF742FE08BD0000D3
:1011A0000020014008B50121202000F0EBF80121CA
:1011B000080200F0E7F80121082000F0E3F84FF4FE
:1011C0004F40ADF8000010208DF8030003208DF88B
:1011D000020069463448FFF723FE4FF4804132484D
:1011E000FFF7FDFE4FF400412F48FFF7F8FE4FF4E4
:1011F00080712D48FFF7F1FE4FF400712A48FFF788
:10120000ECFE4FF480612848FFF7E7FE4FF40061E1
:101210002548FFF7E2FEFC20ADF8000010208DF815
:10122000030003208DF8020069462048FFF7F8FD0F
:1012300004211E48FFF7D3FE08211C48FFF7CFFE0C
:1012400010211A48FFF7CBFE20211848FFF7C7FEF0
:1012500040211648FFF7C3FE80211448FFF7BFFE68
:101260004FF47040ADF8000010208DF8030003200B
:101270008DF8020069460E48FFF7D2FD4FF4805109
:101280000B48FFF7ACFE4FF400510948FFF7A7FEEB
:101290004FF480410648FFF7A2FE4FF40041044896
:1012A000FFF79DFE08BD0000001401400020014032
:1012B000000C01407047000070B51948457901F0F5
:1012C000EDFA18484478462D01DB01F045FA1AE0A2
:1012D00015480078012800D117E001F0DFFA114825
:1012E0004478462C0EDAA54203DD0020FFF7A0FB70
:1012F00009E0A54203DA0120FFF79AFB03E0A542CB
:1013000001D102E001E0A542E2D100BF0220FFF7D7
:101310008FFB052001F09CFA01F01EFA70BD000061
:10132000EC00002046000020940000200146002030
:10133000034A506820F44040084350607047000062
:101340000010024029B1064AD2690243044BDA6117
:1013500004E0034AD2698243014BDA61704700001E
:101360000010024029B1064A12690243044B1A6177
:1013700004E0034A12698243014B1A61704700007E
:101380000010024029B1064A92690243044B9A6157
:1013900004E0034A92698243014B9A61704700005E
:1013A0000010024029B1064AD2680243044BDA60B9
:1013B00004E0034AD2688243014BDA6070470000C0
:1013C0000010024030B500210022002400232D4DE2
:1013D0006D6805F00C0121B1042905D0082923D13D
:1013E00005E0294D056022E0274D05601FE0254DF1
:1013F0006D6805F47012234D6D6805F48034022584
:1014000005EB92421CB9214D554305600BE01D4D83
:101410006D6805F400351DB11C4D5543056002E0B3
:10142000194D5543056002E0174D056000BF00BF30
:10143000144D6D6805F0F0010909154D6B5C0568E8
:10144000DD4045600F4D6D6805F4E061090A104DFF
:101450006B5C4568DD4085600A4D6D6805F4605140
:10146000C90A0B4D6B5C4568DD40C560054D6D6874
:1014700005F44041890B074D6B5CC568B5FBF3F57E
:10148000056130BD0010024000127A0000093D00E5
:101490002A0000203A00002070B505460E460024C0
:1014A0000CE0295D0C4800F088FF00BF40210A488D
:1014B00000F0B6FE0028F9D0601CC4B2B442F0DBE4
:1014C00000BF4021044800F0ABFE0028F9D0042002
:1014D00001F0BEF970BD00000044004010B586B0B8
:1014E000044601210420FFF74DFF01214804FFF7C6
:1014F00029FF0420ADF8140003208DF816001820F1
:101500008DF8170005A92148FFF78AFC0820ADF8DF
:10151000140004208DF8170005A91C48FFF780FC73
:101520004FF4A060FFF720FE26208DF80000022077
:101530008DF8010000208DF8020001208DF80300D5
:101540006846FFF7D9FD01940020ADF80800ADF81A
:101550000A00ADF80C00ADF810000C20ADF80E003C
:1015600001A90B4800F0B8FE012240F225510848BD
:1015700000F08DFE012240F22441054800F087FE74
:101580000121034800F040FE06B010BD00080140F4
:10159000004400401CB506A103C9CDE900010821A3
:1015A0006846FFF779FF642001F02CF91CBD0000AC
:1015B000AFA100FFFFFFFFFF10B50220FFF738FAD1
:1015C00001F0FEFC052001F043F90220FFF7BCF812
:1015D00001F090FA052001F03BF90220FFF7F4F842
:1015E00001F08EFB052001F033F90220FFF72EF900
:1015F00001F08EFC052001F02BF910BD704710B5ED
:1016000000F002F810BD00000CB500200190009021
:101610003348006840F480303149086000BF3048EA
:10162000006800F4003000900198401C0190009880
:1016300018B90198B0F5A06FF1D12948006800F4FD
:10164000003010B10120009001E0002000900098CF
:10165000012843D12348006840F010002149086068
:101660000846006820F0030008600846006840F063
:10167000020008601A4840681949486008464068F6
:1016800048600846406840F480604860084640680A
:1016900020F47C1048600846406840F4E810486038
:1016A0000846006840F08070086000BF0C48006881
:1016B00000F000700028F9D00948406820F00300CD
:1016C000074948600846406840F00200486000BF93
:1016D0000348406800F00C000828F9D10CBD000058
:1016E0000010024000200240042808D14FF0E02101
:1016F000096941F004014FF0E022116107E04FF069
:10170000E021096921F004014FF0E02211617047E6
:101710007047000010B51348006840F001001149FF
:10172000086008464068104908400E49486008466D
:1017300000680E4908400B4908600846006820F41C
:10174000802008600846406820F4FE0048604FF49E
:101750001F008860FFF753FF4FF0006004490860E6
:1017600010BD0000001002400000FFF8FFFFF6FE71
:1017700008ED00E0F0B50C46154600220021068C6D
:101780004FF6FE773E400684028B018C4FF60C76B6
:1017900032407E1C06EA03162E433243104EB042FE
:1017A0000ED0104EB0420BD0B0F1804F08D00E4E8C
:1017B000B04205D00D4EB04202D00D4EB04206D11F
:1017C0004FF6FD76314044F00106314305E04FF617
:1017D000F576314044F00106314302830184F0BDC7
:1017E000002C01400034014000040040000800408B
:1017F000000C0040F0B50C461546002200210026E2
:10180000078C4FF6EF7C07EA0C070784028B018CEC
:101810004FF6FF7707EA041640F6FF473A404FF6C7
:10182000FF7707EA03373A434FF6FF7707EA0527C2
:101830003A43114FB8420ED0104FB8420BD0B0F11E
:10184000804F08D00E4FB84205D00E4FB84202D09C
:101850000D4FB84206D14FF6DF77394046F01007FA
:10186000394305E04FF65F77394044F010073943BC
:1018700002830184F0BD0000002C014000340140CF
:101880000004004000080040000C0040F0B50C4689
:101890001546002200210026078C4FF6FF6C07EA50
:1018A0000C070784828B018C4FF6FF7707EA04262A
:1018B0004FF60C773A404FF6FF7707EA03172F43AE
:1018C0003A43114FB8420ED0104FB8420BD0B0F18E
:1018D000804F08D00E4FB84205D00E4FB84202D00C
:1018E0000D4FB84206D14FF6FF57394046F4807786
:1018F000394305E04FF2FF57394044F480773943CC
:1019000082830184F0BD0000002C014000340140BE
:101910000004004000080040000C0040F0B50C46F8
:101920001546002200210026078C4EF6FF7C07EAB0
:101930000C070784828B018C4FF6FF7707EA043689
:1019400040F6FF473A404FF6FF7707EA05273A434C
:101950004FF6FF7707EA03373A43114FB8420ED0EC
:10196000104FB8420BD0B0F1804F08D00E4FB842A4
:1019700005D00E4FB84202D00D4FB84206D14DF6F9
:10198000FF77394046F48057394305E047F6FF5763
:10199000394044F48057394382830184F0BD00000C
:1019A000002C0140003401400004004000080040C9
:1019B000000C004010B500F001F810BD00B587B074
:1019C0000121C802FFF7DEFC01214120FFF7DAFC0C
:1019D00001212648FFF7B0FA4FF42060ADF8180057
:1019E00004208DF81B0003208DF81A0006A920485A
:1019F000FFF716FA1F4800F06BF903A800F064FB2C
:101A00001D4800884FF6FF7101EA8000ADF8100014
:101A10000020ADF80C00ADF81200ADF80E0003A9DF
:101A2000144800F0FFFA0A231A460321114800F077
:101A300043FA684600F0B8FA0620ADF80800694697
:101A40000C4800F05BFA01210A4800F032F901224B
:101A50001146084800F0B1FA0020064924310880F8
:101A60000121044800F028F907B000BDC0001600AD
:101A700000180140002C01407C00002010B500F04F
:101A800001F810BD00B587B001210846FFF75AFCE8
:101A900001210420FFF776FC0320ADF81800042094
:101AA0008DF81B0003208DF81A0006A92048FFF7C7
:101AB000B7F94FF0804000F00BF903A800F004FBE9
:101AC0001C4800884FF6FF7101EA8000ADF8100055
:101AD0000020ADF80C00ADF81200ADF80E0003A91F
:101AE0004FF0804000F09EFA0A231A46032158075F
:101AF00000F0E2F9684600F057FA0620ADF8080059
:101B000069464FF0804000F0F9F90121880700F0A4
:101B1000CDF801221146900700F04FFA00204FF057
:101B2000804188840121880700F0C6F807B000BD15
:101B3000000801406800002010B500F001F810BD59
:101B400000B587B001210220FFF7FCFB0121042032
:101B5000FFF718FCC020ADF8180004208DF81B001A
:101B600003208DF81A0006A91D48FFF759F91D48F2
:101B700000F0AEF81C4800884FF6FF7101EA8000C3
:101B8000ADF810000020ADF80C00ADF81200ADF873
:101B90000E0003A9134800F045FA0A231A46032150
:101BA000104800F089F9684600F0FEF90620ADF80B
:101BB000080069460B4800F0A1F90121094800F02E
:101BC00075F801221146074800F0F7F90020054991
:101BD000243108800121034800F06EF807B000BDF1
:101BE00000080140000400405400002010B500F03F
:101BF00001F810BD00B587B001210420FFF7A2FB5A
:101C000001210820FFF7BEFB06A8FFF7EAF9C02074
:101C1000ADF8180004208DF81B0003208DF81A0081
:101C200006A91F48FFF7FCF81E4800F051F803A86A
:101C300000F04AFA1C4800884FF6FF7101EA800064
:101C4000ADF810000020ADF80C00ADF81200ADF8B2
:101C50000E0003A9134800F0E5F90A231A460321F0
:101C6000104800F029F9684600F09EF90620ADF80A
:101C7000080069460B4800F041F90121094800F0CD
:101C800015F801221146074800F097F90020054990
:101C9000243108800121034800F00EF807B000BD90
:101CA000000C01400008004044000020CA430282AA
:101CB0007047CA430282704721B1028842F0010294
:101CC000028004E002884FF6FE731A4002807047DB
:101CD00010B504466848844208D10121C014FFF7BA
:101CE00061FB0021E014FFF75DFBC4E0B4F1804F1D
:101CF00008D101210846FFF735FB00210120FFF73D
:101D000031FBB8E05D48844208D101210220FFF791
:101D100029FB00210220FFF725FBACE05848844254
:101D200008D101210420FFF71DFB00210420FFF74B
:101D300019FBA0E05348844208D101210820FFF795
:101D400011FB00210820FFF70DFB94E04E48844270
:101D500008D101211020FFF705FB00211020FFF71B
:101D600001FB88E04948844208D101212020FFF787
:101D7000F9FA00212020FFF7F5FA7CE0444884427C
:101D800008D101214014FFF70DFB00216014FFF77B
:101D900009FB70E03F48844209D10121C804FFF7E4
:101DA00001FB00214FF40020FFF7FCFA63E03A4802
:101DB000844209D101210805FFF7F4FA00214FF40C
:101DC0008010FFF7EFFA56E03448844209D1012130
:101DD0004805FFF7E7FA00214FF40010FFF7E2FA99
:101DE00049E02F48844208D101214020FFF7BAFA88
:101DF00000214020FFF7B6FA3DE02A48844208D18E
:101E000001218020FFF7AEFA00218020FFF7AAFA17
:101E100031E02548844208D101218015FFF7A2FA5C
:101E20000021A015FFF79EFA25E02048844209D141
:101E300001210804FFF7B6FA00214FF48030FFF7C4
:101E4000B1FA18E01A48844209D101214804FFF789
:101E5000A9FA00214FF40030FFF7A4FA0BE015486F
:101E6000844208D101218804FFF79CFA00214FF435
:101E70008020FFF797FA10BD002C014000040040BD
:101E800000080040000C004000100040001400401A
:101E900000340140004C014000500140005401401A
:101EA00000180040001C004000200040004001409D
:101EB0000044014000480140F0B50C4615461E465E
:101EC0000021002200230189028B038C4FF6F87752
:101ED000394021434FF6FC473A4040F201173A435C
:101EE0004FF6DD773B404FF6FF7707EA06172F43A3
:101EF0003B43018102830384F0BD000070B50546B9
:101F00000C46244885420ED0234885420BD0B5F1BB
:101F1000804F08D02148854205D02148854202D013
:101F20002048854200D100E000BF208850B92389B5
:101F3000A28861882846FFF71DFCE188284600F04A
:101F400045F825E0208804280AD12389A2886188E1
:101F50002846FFF74FFCE188284600F040F817E0DC
:101F6000208808280AD12389A28861882846FFF79B
:101F70008DFCE188284600F03FF809E02389A2881B
:101F800061882846FFF7CAFCE188284600F03DF842
:101F900070BD0000002C01400034014000040040EE
:101FA00000080040000C0040002101804180012118
:101FB00081800021C180018170471AB183890B4360
:101FC000838102E083898B4383817047028B4FF6C4
:101FD000F3731A400283028B0A4302837047028B19
:101FE0004FF2FF331A400283028B4FF6FF7303EA6E
:101FF00001231A4302837047828B4FF6F3731A4012
:102000008283828B0A4382837047828B4FF2FF3335
:102010001A408283828B4FF6FF7303EA01231A432F
:1020200082837047002202881D4B98420ED01D4BC0
:1020300098420BD0B0F1804F08D01B4B984205D08E
:102040001A4B984202D01A4B984204D14FF68F7324
:102050001A404B881A43174B984207D0164B9842A8
:1020600004D04FF6FF431A40CB881A4302808B8876
:1020700083850B8803850A4B98420BD0094B984205
:1020800008D00E4B984205D00D4B984202D00D4B14
:10209000984201D10B7A03860123838270470000A6
:1020A000002C0140003401400004004000080040C2
:1020B000000C0040001000400014004000400140AF
:1020C00000440140004801404FF6FF71818000212B
:1020D0000180C180418001727047000070B540F2FC
:1020E0002551244800F0A9F8002842D0214800F0EA
:1020F0005FF9C4B2F02C0BD1012504E000201E4989
:102100004855681CC5B2142DF8DB00201B49088017
:102110001A48008800F4004058BB1848008800F4B2
:10212000804060B10A2C03D000201449088020E0D0
:102130001248008840F400401049088019E00D2C36
:1021400006D10E48008840F480400C49088010E019
:102150000A480088C0F30D0007490C54074800885E
:10216000401C0649088008460088C72801DD002079
:10217000088070BD003801402C010020280000209C
:1021800010B540F225511B4800F057F860B11948CE
:1021900000F00EF9C4B21848184909784454174899
:1021A0000078401C1549087040F22441114800F0A5
:1021B00044F8D0B10F480088114908800D48001D2F
:1021C000008808800D4800780E4908700A48407859
:1021D000A12803D000200949087006E0FEF7D8FDC9
:1021E00000F046FF002005490870042000F030FB95
:1021F00010BD000000440040AC000020040000209E
:10220000060000200800002021B1828942F400521B
:10221000828104E082894DF6FF731A408281704703
:1022200002460020B1F5007F00D100BF13880B40AB
:102230000BB1012000E00020704770B50246002479
:1022400000230025002040F66A16B14200D100BFED
:10225000C1F3421501F01F03012606FA03F3012D15
:1022600002D19689334006E0022D02D1168A33400E
:1022700001E0968A33400C12012606FA04F416880F
:10228000344013B10CB1012000E0002070BDF0B566
:102290000346002400260025002040F66A17B942B4
:1022A00000D100BF1846C1F3421401F01F060127F8
:1022B00007FA06F5012C01D10C3004E0022C01D103
:1022C000103000E014301AB107682F43076002E0B5
:1022D0000768AF430760F0BD2DE9F04786B00546BB
:1022E0000E460024A24600BFA1460027B08900B1D7
:1022F00000BF2F462C8A4CF6FF700440F088044340
:102300002C82AC894EF6F3100440B0883189084322
:10231000718908430443AC81AC8A4FF6FF40044006
:10232000B0890443AC8201A8FFF74CF81F488742EC
:1023300002D1DDF810A001E0DDF80CA0A88900F4BE
:10234000004040B10AEBCA0000EB0A1031684900B6
:10235000B0FBF1F807E00AEBCA0000EB0A103168A5
:102360008900B0FBF1F86420B8FBF0F0040120090B
:10237000642101FB1089A88900F4004040B132209B
:1023800000EBC900B0FBF1F000F00700044308E0E7
:10239000322000EB09106421B0FBF1F000F00F00D7
:1023A00004432C8106B0BDE8F087000000380140EE
:1023B00001468888C0F308007047C1F30802828094
:1023C000704700BFFEE700002DE9F0412F48067975
:1023D000447900F0C5FC2E48477885780B2C01DB4A
:1023E00000F0BAF943E02B480078012800D142E020
:1023F00000F0B6FC2848477885780B2D36DABE42C7
:102400000CD0AC420AD01EB90120FEF71FFA2EE014
:10241000012E2CD10020FEF719FA28E07EB9BE4229
:102420000DD1AC420BD0AC4203DD0120FEF70EFA19
:102430001DE0AC421BDA0020FEF708FA17E0012E7F
:102440000FD1BE420DD1AC420BD0AC4203DD002017
:10245000FEF7FCF90BE0AC4209DA0120FEF7F6F9D1
:1024600005E0BE4203D1AC4201D104E003E0BE422C
:10247000B9D1AC42B7D100BF0220FEF7E7F9052081
:1024800000F0E6F900F068F9BDE8F081EC0000200A
:1024900056000020940000207E0000200FB4054B61
:1024A00010B503A9044A029800F018F810BC5DF8B2
:1024B00014FB0000313300082400002002E008C8AB
:1024C000121F08C1002AFAD170477047002001E0AE
:1024D00001C1121F002AFBD1704700002DE9FF4FF8
:1024E00089B09B460446002506E025280BD05A46B5
:1024F0000B999047641C6D1C20780028F5D10DB015
:102500002846BDE8F08F0027B8460122474900E081
:10251000074314F8013F203B02FA03F00842F7D1C9
:1025200020782E2819D114F8010F47F004072A2823
:102530000ED06FF02F022078A0F1300109290CD8BD
:1025400008EB880102EB410100EB0108641CF2E793
:102550000A98641C50F8048B0A9020780028CED08A
:10256000642808D0692806D075281ED05A460B99D1
:1025700090476D1C58E00A994FF00A0901C90A9169
:10258000002802DA40422D2102E0390504D52B2132
:102590008DF82010012103E0F90704D02021F7E78E
:1025A0008A4608AE0DE00021FAE70A994FF00A09C1
:1025B00001C90A91F7E74946FDF7BBFE303106F83D
:1025C000011D0028F7D1ADEB060000F120097807C6
:1025D00001D44FF00108C84502DDA8EB090000E076
:1025E00000208046002706E008A85A46C05D0B99E7
:1025F00090476D1C7F1C5745F6DB04E030205A469F
:102600000B9990476D1CB8F10001A8F10108F5DCA9
:1026100005E016F8010B5A460B9990476D1CB9F16D
:102620000001A9F10109F4DC641C65E70928010037
:1026300010B53B480078BC2833D010DCB32840D01C
:1026400006DC11281AD0B0282FD0B12862D130E092
:10265000B4283AD0B62840D0B7285BD141E0C12891
:102660004FD006DCBD2828D0BE2832D0C02851D19A
:1026700041E0C92839D0D1284CD148E0012080F36D
:10268000138800BF00BF2748006800F4E0602649B7
:102690000843001D23490860BFF34F8F00BF00BFF0
:1026A000FEE70220FEF750F835E00020FEF74CF878
:1026B00031E00120FEF748F82DE00220FEF784F813
:1026C00029E00020FEF780F825E00120FEF77CF8E5
:1026D00021E00220FEF7BAF81DE00020FEF7B6F870
:1026E00019E00120FEF7B2F815E00220FEF7A0F98C
:1026F00000F0D4F80FE000200C490870FEF798F9BC
:1027000009E00120FEF794F900F05AFC03E0FEF71F
:1027100053FF00E000BF00BF00F00AF810BD00004A
:10272000A70000200CED00E00000FA0549000020A1
:10273000002002490870024908707047A600002076
:10274000A700002000200249087002490870704765
:10275000A6000020A80000200020024908700249BD
:1027600008707047A6000020AA00002010B513488A
:102770000078CA3805281DD2DFE800F003080D12E2
:10278000170000F0B7F9FFF7D3FF14E000F0B8FA34
:10279000FFF7CEFF0FE000F0BBFBFFF7C9FF0AE039
:1027A00000F00EFCFFF7C4FF05E0FDF7AFFFFFF7F9
:1027B000BFFF00E000BF00BF10BD0000A900002067
:1027C00010B56FF00400FEF78FFF0A4800680A4951
:1027D000B0FBF1F0094908700846007800EB4001B1
:1027E000C1EBC0104FF6FF7101EAC0000449088038
:1027F00010BD00000C00002000127A002000002014
:10280000220000200146114A12884A434FF0E0237B
:102810005A6100229A611A46126942F001021A6155
:1028200000BF4FF0E022106900F001021AB100F47D
:102830008032002AF5D04FF0E022126922F0010226
:102840004FF0E0231A6100229A61704722000020B5
:102850000146114A12784A434FF0E0235A610022A0
:102860009A611A46126942F001021A6100BF4FF0E4
:10287000E022106900F001021AB100F48032002A4F
:10288000F5D04FF0E022126922F001024FF0E02370
:102890001A6100229A6170472000002010B5234879
:1028A000008800F01000042801DD012000E0002075
:1028B0001F4908601D4924310888C11700EB917138
:1028C0008910322291FBF2F11A4A117010460078F9
:1028D000194948701648006810B1012823D110E04A
:1028E0001348006818B91248007813490870114855
:1028F0000078114948700F48017810A0FFF7CEFD0D
:1029000012E00B480068012803D1094800780A4901
:10291000087008480078084948700648017807A000
:10292000FFF7BCFD00E000BF00BF10BD0008004085
:102930004C000020480000204600002025640D0ABD
:10294000000000002DE9F0414348008800F010002D
:10295000042801DD012000E000204049086008460D
:10296000006810B1012872D136E03C48006800BB15
:10297000394824300488E11704EB91718810FDF781
:102980006EFC0746364A374BFDF7EEFB0546FDF772
:10299000B7FC3549088008460088B0F5877F09DB19
:1029A00001203249088030480088C0F5B4703049B1
:1029B000088006E000202D4908802B4800882C491B
:1029C0000880264800782B4908702848007848700D
:1029D0002748007888703BE02048006801282AD109
:1029E0001D4824300088C0F57A64E11704EB91712A
:1029F0008810FDF734FC0746194A1A4BFDF7B4FB63
:102A00000546FDF77DFC1849088008460088B0F5AA
:102A1000877F09DB00201549088013480088C0F52E
:102A2000B4701349088006E00120104908800E4860
:102A300000880F490880094800780E4908700B4843
:102A4000007848700A480078887001E0FFE700BF0E
:102A500000BFBDE8F08100000004004060000020DD
:102A60000AD7A3703D0AD73F5A0000205C0000201F
:102A70005E0000205600002010B5FFF763FF1948E4
:102A80008078D8B11848008840B980211748FEF7EF
:102A9000A4FA40211548FEF7A2FA0BE0124800887C
:102AA000012807D140211148FEF797FA80210F48ED
:102AB000FEF795FA0A20FFF7A5FE11E0C0210B48AA
:102AC000FEF78DFAFFF738F80520FFF7C1FE072063
:102AD00000F0A6FC08210648FEF7DEFCFFF732FEF8
:102AE00010BD0000560000205C00002000200140C6
:102AF0009800002010B5FFF725FF012000F090FCA2
:102B000008210248FEF7C8FC10BD00009800002014
:102B100010B5FFF717FF0C48008840B90B48008834
:102B20000B2804DB40210A48FEF759FA0BE006485F
:102B30000088012807D105480088032803DB80218D
:102B40000348FEF74CFA10BD5C0000205E00002038
:102B5000002001402DE9F0414FF08040008800F056
:102B60001000042801DD012000E000203E4908603B
:102B70000846006810B1012871D136E03A48006873
:102B800000BB4FF08040848CE11704EB91718810FA
:102B9000FDF765FB0746354A354BFDF7E5FA054677
:102BA000FDF78FFB3349088008460088B0F5877F22
:102BB00009DB0120304908802E480088C0F5B47038
:102BC0002E49088006E000202B490880294800880B
:102BD0002A49088024480078294908702648007846
:102BE00048702648007888703AE01F48006801283D
:102BF00029D18007808CC0F57A64E11704EB9171CC
:102C00008810FDF72CFB0746184A194BFDF7ACFA64
:102C10000546FDF756FB1749088008460088B0F5C1
:102C2000877F09DB00201449088012480088C0F51E
:102C3000B4701249088006E001200F4908800D4851
:102C400000880E490880084800780D4908700A4835
:102C50000078487009480078887001E0FFE700BFFD
:102C600000BFBDE8F0810000740000200AD7A37007
:102C70003D0AD73F6E000020700000207200002047
:102C80006A00002010B5FFF765FF4FF40071194886
:102C9000FEF79AF9D8B918480088012808D1102100
:102CA0001448FEF79AF920211248FEF798F90AE035
:102CB0001148008838B920210E48FEF78EF91021FE
:102CC0000C48FEF78CF90A20FFF79CFD11E030213B
:102CD0000848FEF784F9FEF7D1FE0520FFF7B8FD9E
:102CE000092000F09DFB08210448FEF7D5FBFFF703
:102CF00029FD10BD00200140700000209800002038
:102D000010B5FFF727FF022000F08AFB08210248D8
:102D1000FEF7C2FB10BD00009800002010B5FFF7C1
:102D200019FF0C4800880F2808DB0B480088012891
:102D300004D120210948FEF752F90AE0054800882D
:102D40000F2806DB0448008818B910210348FEF755
:102D500046F910BD720000207000002000200140E4
:102D60002DE9F0414448008800F01000042801DDFE
:102D7000012000E00020414908600846006810B1C9
:102D8000012874D137E03D48006808BB3A48243038
:102D90000488E11704EB91718810FDF760FA07468B
:102DA0004FF06632364BFDF7DFF90546FDF789FA3D
:102DB0003449088008460088B0F5877F09DB012088
:102DC000314908802F480088C0F5B4702F49088029
:102DD00006E000202C4908802A4800882B490880FA
:102DE000264800782A490870274800784870274804
:102DF000007888703CE02148006801282BD11E48EB
:102E000024300088C0F58054E11704EB91718810DC
:102E1000FDF725FA07464FF06632194BFDF7A4F986
:102E20000546FDF74EFA1749088008460088B0F5B8
:102E3000877F09DB00201449088012480088C0F50C
:102E4000B4701249088006E001200F4908800D483F
:102E500000880E490880094800780D4908700A4822
:102E60000078487009480078887001E0FFE700BFEB
:102E700000BFBDE8F0810000002C01408800002068
:102E80006666D63F82000020840000208600002075
:102E90007E00002010B5FFF763FF4FF480611948F2
:102EA000FEF792F8D8B918480088012808D1042103
:102EB0001448FEF792F808211248FEF790F80AE04D
:102EC0001148008838B908210E48FEF786F8042119
:102ED0000C48FEF784F80A20FFF794FC11E00C215F
:102EE0000848FEF77CF8FEF765FD0520FFF7B0FC0B
:102EF0000B2000F095FA08210448FEF7CDFAFFF701
:102F000021FC10BD0020014084000020980000201A
:102F100010B5FFF725FF032000F082FA08210248D0
:102F2000FEF7BAFA10BD00009800002010B5FFF7B8
:102F300017FF0C4800880B2807DB0B48008820B9D6
:102F400004210A48FEF74BF80BE0064800880B28DE
:102F500007DB05480088012803D108210348FEF754
:102F60003EF810BD860000208400002000200140B3
:102F700010B54FF400610F48FEF726F840B94FF442
:102F800000410D48FEF729F80A20FFF73BFC0FE04F
:102F90004FF400410848FEF722F8FEF727FE0D2007
:102FA00000F03EFA08210548FEF776FAFFF7CAFB63
:102FB00010BD0000002001400014014098000020D6
:102FC00010B5FFF76BFC042000F02AFA0821034833
:102FD000FEF762FA0A20FFF73BFC10BD98000020C4
:102FE00010B5044614B1012C38D11BE0FFF756FC94
:102FF0001C480078462804DB4FF480411A48FDF74E
:10300000EEFF4FF400611948FDF7DEFF012805D1FE
:10301000C1031548FDF7E3FFFEF7E8FD0520FFF7C4
:10302000F1FB1CE0FFF73AFC0E4800781E2804DB99
:103030004FF480410C48FDF7D2FF4FF400610B487C
:10304000FDF7C2FF012805D1C1030748FDF7C7FFFF
:10305000FEF7CCFD0520FFF7D5FB00E000BF00BF69
:1030600010BD000048000020001401400020014075
:1030700010B5A6480078AF2874D1A4484078A1289C
:10308000FAD1A24880780028F6D1A1480088A14949
:1030900009888842F0D19D48C47801209E49087073
:1030A0000A20FFF7D5FBC02C75D01FDCB72C73D0DE
:1030B00012DCB32C57D008DC112C29D0B02C35D021
:1030C000B12C3AD0B22C68D13EE0B42C52D0B52C01
:1030D00057D0B62CF7D168E0A4F1B80007285CD22D
:1030E000DFE800F071A1A8AF1D395C00A4F1C100B8
:1030F0001728F4D2DFE800F07F865151515151ACCE
:1031000071DDE4EBF4FB515190B3BAC1C8CFD600E6
:10311000012082490870112081490870EFE00120E8
:103120007E490870BC207E490870E8E001207B4998
:103130000870B0207A490870E1E0012077490870F2
:10314000B12077490870DAE0042074490870B22091
:1031500074490870D3E0012070490870BD2070499F
:103160000870CCE0CDE001206C490870B3206C49B8
:103170000870C4E0012069490870B42068490870EB
:10318000BDE0042065490870B5206649087000203C
:1031900061490870B3E027E00EE0AFE001205F492D
:1031A0000870BE205E490870A9E001205B490870E4
:1031B000B6205B490870A2E0012058490870B7208A
:1031C000574908709BE0042054490870B8205549BD
:1031D000087000205049087091E001204F490870A4
:1031E000C9204F4908708AE001204C490870C0206E
:1031F0004B49087083E0012048490870C1204849C4
:1032000008707CE0042045490870C22045490870D8
:1032100000204149087072E0012040490870D12027
:103220003F4908706BE002203C490870B9203E49D4
:10323000087064E0022039490870BA203A490870E1
:103240005DE0022035490870BB203749087056E020
:10325000022032490870C820334908704FE002202C
:103260002E490870D2203049087048E002202B49CE
:103270000870D3202C49087041E0022027490870CB
:10328000D420294908703AE0022024490870D5204A
:103290002549087033E0022020490870D6202249D1
:1032A00008702CE002201D490870D7201E490870C4
:1032B00025E0032019490870CA201C4908701EE047
:1032C000032016490870CB201849087017E0032026
:1032D00012490870CC201549087010E007E0FFE79C
:1032E00003200E490870CD201049087007E0032024
:1032F0000A490870CE200D49087000E000BF00BFE9
:1033000000BF0520FFF7A4FA10BD0000EC0000206C
:10331000900000208E00002094000020A6000020D5
:10332000A7000020AA000020A8000020A90000207B
:1033300000BF054A128802F04002002AF9D0C2B24A
:10334000014B1B1D1A80704700380140FFF738FA07
:103350004FF4165000F074FA4FF4E130FEF7BEF867
:10336000FDF720FFFDF70AFFFDF79CFEFEF73EFC90
:10337000FEF7E2FBFEF782FBFEF71CFBFDF7A4FA6B
:10338000FEF708F943E022480068C0432149C1F82C
:1033900094013220FFF736FA1F480078012806D042
:1033A00002280AD003280ED0042818D111E0FFF714
:1033B0003FF90520FFF74CFA12E000F031F9052043
:1033C000FFF746FA0CE0FFF7D1F90520FFF740FAC6
:1033D00006E000F017FA0520FFF73AFA00E000BF18
:1033E00000BFFFF795FB0520FFF732FAFFF796FCC9
:1033F0000520FFF72DFAFFF799FD0520FFF728FAC2
:1034000006480078FFF7ECFD0520FFF721FABAE740
:103410009481214200802142A60000204900002022
:1034200070B50446AF205C490870A12048700020A8
:1034300088700520FFF70CFA122C75D2DFE804F033
:103440009D09131D27313B444C545C646C757D858C
:103450008D95B2205049C8705048407808714F4847
:10346000807848718AE0B5204B49C8704C48407854
:1034700008714B488078487180E0B8204649C87090
:1034800048484078087147488078487176E0C22003
:103490004149C870444800780871434840784871F1
:1034A0006CE0C6203C49C8703F48007808713E482F
:1034B0004078487162E0C3203749C870FF20087126
:1034C0003A480078487159E0B9203349C870012062
:1034D00008710020487151E0BC202F49C8701020AD
:1034E00008710020487149E0BA202B49C8700120BA
:1034F00008710020487141E0BD202749C8701020A4
:1035000008710020487139E0BB202349C8700120B0
:1035100008710020487131E0BE201F49C87010209A
:1035200008710020487129E027E0C8201A49C870B6
:10353000012008710020487120E0C9201649C87098
:10354000102008710020487118E0D2201249C8707C
:10355000012008710020487110E0D4200E49C87085
:10356000012008710020487108E0D6200A49C8707F
:10357000012008710020487100E000BF00BF062153
:103580000548FDF737FD0546281203498871CD71BE
:103590000520FFF75DF970BD98000020560000205F
:1035A0006A0000207E000020460000203E0000202F
:1035B00010B506211748FDF71DFD1749088015486D
:1035C000C0791449897900EB012014490880114819
:1035D0000078AF2801D0002010BD0E48807808B1D7
:1035E0000120F9E70D4800880B490988884201D07D
:1035F0000220F1E707480078AF2808D10548407855
:10360000A12804D10348807808B90320E4E700200A
:10361000E2E70000AC0000208E00002090000020B7
:1036200010B574480078D32844D00CDCBB281BD0DC
:1036300004DCB92810D0BA2878D111E0C82817D0F6
:10364000D228F9D118E0D42852D0D52871D0D62864
:103650006ED0D728F0D1ABE00420FDF775F8C6E0B6
:103660000420FDF7B1F8C2E00420FDF7EFF8BEE05A
:103670000420FDF7DDF9BAE010215F48FDF7ADFC4D
:1036800020215D48FDF7ABFC4FF400715A48FDF76F
:103690009BFC70B130215848FDF7A1FCFEF7EEF914
:1036A0000F20FFF7BDFE08215448FDF7F5FEFFF798
:1036B00049F89CE020215048FDF78FFC10214E482E
:1036C000FDF78DFC4FF400714B48FDF77DFC70B1A8
:1036D00030214948FDF783FCFEF7D0F90F20FFF7B2
:1036E0009FFE08214548FDF7D7FEFFF72BF87EE047
:1036F00004214148FDF771FC08213F48FDF76FFCAC
:103700004FF480613C48FDF75FFC70B10C213A48F2
:10371000FDF765FCFEF74EF91020FFF781FE08214A
:103720003648FDF7B9FEFFF70DF860E05EE000E017
:103730001DE008213048FDF750FC04212E48FDF71C
:103740004EFC4FF480612C48FDF73EFC70B10C211B
:103750002948FDF744FCFEF72DF91020FFF760FE25
:1037600008212648FDF798FEFEF7ECFF00BFFFF7A3
:10377000E9F82348807890B9C0211F48FDF72FFC55
:10378000FEF7DAF90520FFF763F81120FFF748FE8E
:1037900008211A48FDF780FEFEF7D4FF07E08021DC
:1037A0001548FDF71AFC40211348FDF718FC1EE0F0
:1037B000FFF7C8F81248807878B9C0210E48FDF7A5
:1037C0000EFCFEF7F7F81120FFF72AFE08210B4840
:1037D000FDF762FEFEF7B6FF07E040210648FDF761
:1037E000FCFB80210448FDF7FAFB00E000BF00BFAE
:1037F00010BD0000A800002000200140980000201B
:103800005600002010B50D480078B22806D0B52823
:1038100008D0B82809D0C2280DD109E00020FDF752
:1038200055F909E0FDF79AF806E0FEF7CDFD03E053
:10383000FDF742FD00E000BF00BF10BDAA00002060
:1038400010B586B00446012144F20400FDF79AFD4C
:103850004FF40070ADF8140003208DF81600182006
:103860008DF8170005A91F48FDF7DAFA4FF48060BC
:10387000ADF8140004208DF8170005A91948FDF7CC
:10388000CFFA4FF4A060FDF76FFC25208DF8000003
:1038900002208DF8010000208DF8020001208DF833
:1038A00003006846FDF728FC01940020ADF80800ED
:1038B000ADF80A00ADF80C00ADF810000C20ADF822
:1038C0000E0001A90848FEF707FD012240F225512C
:1038D0000548FEF7DCFC01210348FEF795FC06B025
:1038E00010BD0000000801400038014000C18140C7
:1038F00001C0804101C0804100C1814001C08041C0
:1039000000C1814000C1814001C0804101C08041AF
:1039100000C1814000C1814001C0804100C181409F
:1039200001C0804101C0804100C1814001C080418F
:1039300000C1814000C1814001C0804100C181407F
:1039400001C0804101C0804100C1814000C181406F
:1039500001C0804101C0804100C1814001C080415F
:1039600000C1814000C1814001C0804101C080414F
:1039700000C1814000C1814001C0804100C181403F
:1039800001C0804101C0804100C1814000C181402F
:1039900001C0804101C0804100C1814001C080411F
:1039A00000C1814000C1814001C0804100C181400F
:1039B00001C0804101C0804100C1814001C08041FF
:1039C00000C1814000C1814001C0804101C08041EF
:1039D00000C1814000C1814001C0804100C18140DF
:1039E00001C0804101C0804100C1814000C0C101CF
:1039F000C30302C2C60607C705C5C404CC0C0DCD5F
:103A00000FCFCE0E0ACACB0BC90908C8D81819D9CE
:103A10001BDBDA1A1EDEDF1FDD1D1CDC14D4D515FE
:103A2000D71716D6D21213D311D1D010F03031F1EE
:103A300033F3F23236F6F737F53534F43CFCFD3D1E
:103A4000FF3F3EFEFA3A3BFB39F9F83828E8E9290E
:103A5000EB2B2AEAEE2E2FEF2DEDEC2CE42425E5BE
:103A600027E7E62622E2E323E12120E0A06061A12E
:103A700063A3A26266A6A767A56564A46CACAD6DDE
:103A8000AF6F6EAEAA6A6BAB69A9A86878B8B9794E
:103A9000BB7B7ABABE7E7FBF7DBDBC7CB47475B57E
:103AA00077B7B67672B2B373B17170B0509091516E
:103AB0009353529296565797559594549C5C5D9D9E
:103AC0005F9F9E5E5A9A9B5B99595898884849898E
:103AD0004B8B8A4A4E8E8F4F8D4D4C8C448485453E
:103AE0008747468682424383418180400C3B0008E1
:103AF00000000020AC000000BC240008B83B000817
:103B0000AC0000204C050000CC24000800000000A0
:103B1000000000000000000000A24A0400000000B5
:103B2000000000000102030406070809000000006D
:103B30000000000000000000000001020304010278
:103B4000030406070809020406080000000000003C
:103B500070170000000000000000000000000000DE
:103B6000E80300000000000000000000000000006A
:103B700000000000E803000000000000000000005A
:103B80000000000000000000000400000000000031
:103B90000000000000000000000000000000000025
:103BA0000000000000000000000000000000000015
:083BB00000000000000000000D
:0400000508000145A9
:00000001FF
