:020000040800F2
:10000000D0070020CD0100080109000811070008F1
:10001000FD080008650400088719000800000000BA
:100020000000000000000000000000004512000871
:100030006904000800000000510C00085913000872
:10004000E7010008E7010008E7010008E7010008F0
:10005000E7010008E7010008E7010008E7010008E0
:10006000E7010008E7010008E7010008E7010008D0
:10007000E7010008E7010008E7010008E7010008C0
:10008000E7010008E7010008E7010008E7010008B0
:10009000E7010008E7010008E7010008E7010008A0
:1000A000E7010008E7010008E7010008E701000890
:1000B000E7010008E7010008E7010008E701000880
:1000C000E7010008E7010008E7010008E701000870
:1000D000E7010008B916000841170008E701000809
:1000E000E7010008E7010008E7010008E701000850
:1000F000E7010008E7010008E7010008E701000840
:10010000E7010008E7010008E7010008E70100082F
:10011000E7010008E7010008E7010008E70100081F
:10012000E7010008E7010008E7010008E70100080F
:1001300000F002F800F03AF80AA090E8000C8244BF
:100140008344AAF10107DA4501D100F02FF8AFF29C
:10015000090EBAE80F0013F0010F18BFFB1A43F0A5
:10016000010318473423000054230000103A24BF31
:1001700078C878C1FAD8520724BF30C830C144BF0C
:1001800004680C607047000000230024002500264E
:10019000103A28BF78C1FBD8520728BF30C148BFEA
:1001A0000B6070471FB51FBD10B510BD00F033F8D0
:1001B0001146FFF7F7FF01F0ADFE00F051F803B470
:1001C000FFF7F2FF03BC01F0E0FB000009488047A5
:1001D00009480047FEE7FEE7FEE7FEE7FEE7FEE729
:1001E000FEE7FEE7FEE7FEE704480549054A064B41
:1001F000704700005D13000831010008D0010020A5
:10020000D0070020D0030020D003002070477047A3
:10021000704770477047754600F02CF8AE460500F1
:100220006946534620F00700854618B020B5FFF711
:10023000DBFFBDE820404FF000064FF000074FF015
:1002400000084FF0000B21F00701AC46ACE8C009F4
:10025000ACE8C009ACE8C009ACE8C0098D467047FD
:1002600010B50446AFF300802046BDE81040FFF70C
:10027000A6BF0000004870477001002010B504467A
:1002800034B1012C16D0022C27D0032C64D13CE0D1
:100290000020334908603349C1F8A4014FF4FA70D3
:1002A00001F08CFC01202E49086000202D49C1F886
:1002B000A40152E000202A4908602A49C1F8A4019B
:1002C0004FF4FA7001F07AFC01202549091D0860FD
:1002D00000202449C1F8A0013FE000202049086027
:1002E0002049C1F8A401062001F09CFE08211E4807
:1002F00000F004FF052001F087FC062001F092FECB
:100300000821194800F0FAFE27E01848006840B9B3
:1003100001201349091D086000201249C1F8A001FD
:1003200019E000200E49091D08600E49C1F8A0011E
:10033000022001F077FE08210B4800F0DFFE0520C7
:1003400001F062FC022001F06DFE0821064800F079
:10035000D5FE01F003FC00E000BF00BF10BD0000AF
:10036000A0012242000022425A0000202C81224299
:1003700010B5044634B1012C16D0022C27D0032C22
:1003800064D13CE00020334908603349C1F89C0146
:100390004FF4FA7001F012FC01202E490860002091
:1003A0002D49C1F89C0152E000202A4908602A49E1
:1003B000C1F89C014FF4FA7001F000FC01202549BE
:1003C000091D086000202449C1F898013FE0002081
:1003D000204908602049C1F89C01072001F022FE55
:1003E00008211E4800F08AFE052001F00DFC0720C0
:1003F00001F018FE0821194800F080FE27E0184897
:10040000006840B901201349091D08600020124905
:10041000C1F8980119E000200E49091D08600E4935
:10042000C1F89801032001F0FDFD08210B4800F000
:1004300065FE052001F0E8FB032001F0F3FD082133
:10044000064800F05BFE01F089FB00E000BF00BF42
:1004500010BD000098012242000022425A000020F4
:100460002881224200BFFEE77047000008B5012145
:100470004FF4907000F026FD4FF4FC40ADF8000002
:1004800010208DF8030003208DF8020069461B48F8
:1004900000F08AF84FF40071184800F012F94FF498
:1004A0008061164800F00DF94FF40061134800F028
:1004B00008F94FF48051114800F003F94FF400514E
:1004C0000E4800F0FEF84FF480410C4800F0F9F8B7
:1004D0003020ADF8000010208DF8030003208DF8C7
:1004E00002006946064800F05FF82021044800F049
:1004F000E8F81021024800F0E4F808BD00200140AF
:100500000014014070B501F00FFE054635B1012D14
:1005100010D0022D1AD0032D36D123E0AA201C4979
:100520000870084600781B490870A2204870002017
:1005300088702AE0AB2016490870084600781549F3
:100540000870A2204870002088701EE0AC2010497E
:100550000870084600780F490870A22048700020F3
:10056000887012E0002405E00A48005D0A49085539
:10057000601CC4B2094800788442F5DB01200849B8
:1005800008700849087000E000BF00BF70BD00009F
:100590004C000020680000204F00002000000020D8
:1005A0004E0000204D0000202DE9F04102460025BC
:1005B0000026002000230024002791F803C00CF03F
:1005C0000F0591F803C00CF0100CBCF1000F03D024
:1005D00091F802C04CEA050591F800C0BCF1000F8B
:1005E00031D0146800202BE04FF0010C0CFA00F31E
:1005F000B1F800C00CEA03069E4220D183004FF000
:100600000F0C0CFA03F7BC4305FA03FC4CEA040494
:1006100091F803C0BCF1280F06D14FF0010C0CFA81
:1006200000FCC2F814C00AE091F803C0BCF1480F06
:1006300005D14FF0010C0CFA00FCC2F810C0401CB0
:100640000828D1D31460B1F800C0BCF1FF0F34DD2D
:10065000546800202EE000F1080C4FF0010808FA61
:100660000CF3B1F800C00CEA03069E4221D18300CE
:100670004FF00F0C0CFA03F7BC4305FA03FC4CEAED
:10068000040491F803C0BCF1280F05D100F1080C57
:1006900008FA0CF8C2F8148091F803C0BCF1480FB6
:1006A00007D100F1080C4FF0010808FA0CF8C2F865
:1006B0001080401C0828CED35460BDE8F081416111
:1006C0007047016170470000F0B502460B460020FC
:1006D000FF24FF2509E012F8016B86EA05010A4EA6
:1006E000765C86EA0405094E745C1E1EA3F10107C0
:1006F000BBB2F0D14619B0B24FF6FF7606EA002041
:100700000619B0B2F0BD0000982200089823000836
:1007100000BFFEE708B50121482000F0D3FB2020F0
:10072000ADF8000010208DF8030003208DF80200C2
:1007300069460948FFF738FF20210748FFF7C1FF46
:100740002020ADF8000069460448FFF72DFF202166
:100750000248FFF7B6FF08BD000C01400018014039
:1007600010B5044624B1012C06D0022C45D119E065
:1007700001202349086041E0002021490860002150
:10078000204800F085FE00201E4924310880082002
:1007900001F048FC08211C4800F0B0FC052001F0E5
:1007A00033FA2BE00120194908704FF47A70184988
:1007B000088008460188174800F027FF164800689F
:1007C000012803D001200E49086015E000200C49E3
:1007D0000860042001F026FC08210B4800F08EFC84
:1007E000052001F011FA042001F01CFC0821064844
:1007F00000F084FC01F0B2F900E000BF00BF10BDC2
:100800009C012142000400405A00002042000020C8
:100810003E000020002C01403881214210B1012807
:1008200008D103E00121054A116004E00021034AD8
:10083000116000E000BF00BF70470000900124423B
:1008400010B5044624B1012C06D0022C45D119E084
:1008500001202349086041E000202149086000216F
:10086000204800F015FE00201E4924310880092090
:1008700001F0D8FB08211C4800F040FC052001F0E5
:10088000C3F92BE00120194908704FF47A70184918
:10089000088008460188174800F0B9FE164800682D
:1008A000012803D001200E49086015E000200C4902
:1008B0000860052001F0B6FB08210B4800F01EFC83
:1008C000052001F0A1F9052001F0ACFB0821064844
:1008D00000F014FC01F042F900E000BF00BF10BDC1
:1008E00094012242000800405A00002043000020EA
:1008F00040000020002C01403C81214200BFFEE767
:100900007047000070B5002100230F22C47804B3A3
:10091000154C246804F4E064C4F5E064210AC1F1D4
:100920000403CA40447804FA03F184781440214354
:1009300009010E4C0678A155047804F01F05012426
:10094000AC4005786D11AD0005F1E025C5F800411A
:1009500009E0047804F01F050124AC40044D06783A
:10096000761145F8264070BD0CED00E000E400E093
:1009700080E100E002490143024A11607047000033
:100980000000FA050CED00E008B50121202000F080
:1009900099FA0121082000F095FA4FF47060ADF843
:1009A000000028208DF8030069460748FFF7FCFD8A
:1009B0004FF44040ADF8000028208DF80300694650
:1009C0000248FFF7F1FD08BD00140140000C014092
:1009D00008B501214FF4907000F074FAFC20ADF8D6
:1009E000000010208DF8030003208DF802006946F6
:1009F0001948FFF7D9FD80211748FFF760FE402115
:100A00001548FFF75CFE20211348FFF758FE102120
:100A10001148FFF754FE08210F48FFF750FE04214C
:100A20000D48FFF74CFE4FF44040ADF80000102099
:100A30008DF8030003208DF8020069460748FFF790
:100A4000B3FD4FF400410548FFF739FE4FF48041F4
:100A50000248FFF734FE08BD0020014000140140A9
:100A600010B5044634B1012C0AD0022C24D0032C3A
:100A700047D13CE024480188244800F0C6FD41E00D
:100A80002148008841F6641188420BDA1E4800882C
:100A900000F5FA701C490880084601881B4800F0E0
:100AA000B4FD08E041F66410174908800846018843
:100AB000164800F0AAFD25E013480088B0F57A7FBB
:100AC0000BDD11480088A0F5FA700F490880084630
:100AD00001880E4800F099FD08E04FF47A700A4949
:100AE000088008460188094800F08FFD0AE00848A0
:100AF00000880549088008460188044800F085FD03
:100B000000E000BF00BF10BD3E000020002C0140EF
:100B10006200002008B501211C2000F0D3F98020DC
:100B2000ADF8000010208DF8030003208DF80200BE
:100B300069461748FFF738FD80211548FFF7BFFDCC
:100B40000120ADF8000010208DF8030003208DF87F
:100B5000020069460F48FFF727FD01210D48FFF706
:100B6000AEFD3020ADF8000010208DF8030003200A
:100B70008DF8020069460848FFF716FD1021064867
:100B8000FFF79DFD20210448FFF799FD08BD0000F7
:100B900000080140000C01400010014010B504465F
:100BA00034B1012C0AD0022C24D0032C47D13CE0D4
:100BB00024480188244800F02AFD41E021480088AB
:100BC00041F6641188420BDC1E48008800F5FA707B
:100BD0001C490880084601881B4800F018FD08E001
:100BE00041F664101749088008460188164800F04D
:100BF0000EFD25E013480088B0F57A7F0BDD114823
:100C00000088A0F5FA700F490880084601880E4850
:100C100000F0FDFC08E04FF47A700A4908800846AD
:100C20000188094800F0F3FC0AE0084800880549FB
:100C3000088008460188044800F0E9FC00E000BF95
:100C400000BF10BD40000020002C014062000020C9
:100C50007047000010B50446082C7DD2DFE804F090
:100C6000040C152627333E5C01203D490860002016
:100C70003C49C1F8880170E001203949091F08602A
:100C800000203849C1F88C0167E000203449086031
:100C90003449C1F888010A2001F0C4F9082132481A
:100CA00000F02CFA052000F0AFFF56E055E00120DF
:100CB0002B49091F0860642000F080FF00202949AB
:100CC000C1F8880149E0012025490860642000F04E
:100CD00075FF00202349C1F88C013EE00020204927
:100CE000091F08600EE02148007800B10EE020489E
:100CF000006818B901201A49086000E006E00A20DF
:100D000000F05CFF1A4800680028ECD000BF00200B
:100D10001349091F086020E000201149091F0860DD
:100D200010E01248007800B110E01148006828B9BE
:100D300001200B49091F086001E00DE006E00A20D0
:100D400000F03CFF0A4800680028EAD000BF0020FD
:100D50000349091F086000E000BF00BF10BD00008C
:100D60008C012442000024425A0000204E00002042
:100D70002081224210B50446082C6ED2DFE804F030
:100D8000040C152E2F3A46650120424908600020C8
:100D90004149C1F8B8017AE001203E49091F0860C5
:100DA00000203D49C1F8BC0171E000203949091F0C
:100DB00008603949C1F8BC010B2001F033F9082162
:100DC000364800F09BF90B2001F02CF9082133483C
:100DD00000F094F9052000F017FF58E057E00120DB
:100DE0002C490860642000F0E9FE00202A49C1F87F
:100DF000BC014CE001202749091F0860642000F075
:100E0000DDFE00202449C1F8B80140E0002021495E
:100E1000091F08600FE02248007800B110E01D486B
:100E20009838006818B901201A49086000E007E006
:100E30000A2000F0C3FE1748983800680028EAD05E
:100E400000BF00201349086021E00020114908601C
:100E500011E01348007808B112E017E00D48983807
:100E6000006820B901200B49091F086000E007E075
:100E70000A2000F0A3FE0748983800680028E8D050
:100E800000BF00200349091F086000E000BF00BF49
:100E900010BD0000BC812242008022425A00002086
:100EA0004E00002029B1064AD2690243044BDA61A0
:100EB00004E0034AD2698243014BDA6170470000C3
:100EC0000010024029B1064A92690243044B9A611C
:100ED00004E0034A92698243014B9A617047000023
:100EE0000010024030B500210022002400232D4DC7
:100EF0006D6805F00C0121B1042905D0082923D122
:100F000005E0294D056022E0274D05601FE0254DD5
:100F10006D6805F47012234D6D6805F48034022568
:100F200005EB92421CB9214D554305600BE01D4D68
:100F30006D6805F400351DB11C4D5543056002E098
:100F4000194D5543056002E0174D056000BF00BF15
:100F5000144D6D6805F0F0010909154D6B5C0568CD
:100F6000DD4045600F4D6D6805F4E061090A104DE4
:100F70006B5C4568DD4085600A4D6D6805F4605125
:100F8000C90A0B4D6B5C4568DD40C560054D6D6859
:100F900005F44041890B074D6B5CC568B5FBF3F563
:100FA000056130BD0010024000127A0000093D00CA
:100FB000260000203600002010B5012043490870AB
:100FC0004FF47A704249088008460188414800F091
:100FD0001CFB0120404908704FF47A703F4908809B
:100FE000084601883B4800F012FB3D48007830B1CC
:100FF000012813D0022821D0032860D135E03948D8
:101000000068012803D001203749086005E000206E
:101010003549086001203249087051E03148001D0F
:101020000068012803D001203049086005E0002055
:101030002E49086002202A49087041E02C480068C7
:1010400040B9012029491031086000202949C1F820
:10105000A00109E000202549103108602549C1F8A8
:10106000A00103201E4908702AE02148001F0068E3
:1010700040B901201D490831086000201D49C1F810
:1010800098011BE000201949083108601949C1F88E
:101090009801134908700D2000F0C4FF082116487C
:1010A00000F02CF8052000F0AFFD0D2000F0BAFF95
:1010B0000821114800F022F800F050FD00E000BFC8
:1010C00000BF052000F0A0FD10BD00004200002080
:1010D0003E000020002C0140430000204000002082
:1010E00044000020388121429C0121429401224287
:1010F0002C812242000022425A00002070B5054691
:101100000E4600240CE0295D0C4800F038FC00BFBE
:1011100040210A4800F066FB0028F9D0601CC4B2E8
:10112000B442F0DB00BF4021044800F05BFB002824
:10113000F9D0042000F068FD70BD000000440040BC
:1011400010B586B0044601210420FFF7BBFE012143
:101150004804FFF7A7FE0420ADF8140003208DF823
:10116000160018208DF8170005A92148FFF71CFA72
:101170000820ADF8140004208DF8170005A91C48BC
:10118000FFF712FA4FF4A060FFF7F4FB26208DF86A
:10119000000000208DF801008DF8020001208DF87C
:1011A00003006846FFF7AEFB01940020ADF808008D
:1011B000ADF80A00ADF80C00ADF810000C20ADF849
:1011C0000E0001A90B4800F069FB012240F22551F5
:1011D000084800F03EFB012240F22441054800F09F
:1011E00038FB0121034800F0F1FA06B010BD000001
:1011F00000080140004400401CB506A103C9CDE928
:10120000000108216846FFF779FF642000F0D6FC52
:101210001CBD0000AFA200FFFFFFFFFF10B50120C3
:10122000FFF79EFA0120FFF70BFB0220FFF726F8DD
:101230000220FFF79DF80220FFF70CFD0220FFF7C8
:1012400099FD10BD704710B500F002F810BD000008
:101250000CB50020019000903348006840F48030C5
:101260003149086000BF3048006800F40030009049
:101270000198401C0190009818B90198B0F5A06F32
:10128000F1D12948006800F4003010B1012000902D
:1012900001E0002000900098012843D12348006815
:1012A00040F01000214908600846006820F0030063
:1012B00008600846006840F0020008601A4840686C
:1012C000194948600846406848600846406840F44C
:1012D000806048600846406820F47C1048600846FA
:1012E000406840F4E81048600846006840F08070AC
:1012F000086000BF0C48006800F000700028F9D0BA
:101300000948406820F003000749486008464068E3
:1013100040F00200486000BF0348406800F00C0045
:101320000828F9D10CBD0000001002400020024046
:10133000042808D14FF0E021096941F004014FF081
:10134000E022116107E04FF0E021096921F004017A
:101350004FF0E022116170477047000010B513484C
:10136000006840F0010011490860084640681049D3
:1013700008400E494860084600680E4908400B497D
:1013800008600846006820F480200860084640682D
:1013900020F4FE0048604FF41F008860FFF753FF01
:1013A0004FF000600449086010BD000000100240CA
:1013B0000000FFF8FFFFF6FE08ED00E030B589B051
:1013C00005460C46012140F60400FFF77BFD4FF473
:1013D0001060ADF8200018208DF8230003208DF850
:1013E000220008A92248FFF7DFF8681E80B2ADF896
:1013F0001800601E80B2ADF814000020ADF81A008D
:10140000ADF8160005A91B4800F004F96020ADF8FE
:1014100004000020ADF81000ADF80C00ADF812008B
:10142000ADF80E000120ADF806000020ADF8080070
:10143000ADF80A0001A90F4800F046F801A90D48CF
:1014400000F098F808210B4800F08AF808210948B4
:1014500000F0CEF80121074800F01AF801210548F4
:1014600000F00AF80121034800F01EF809B030BD71
:1014700000080140002C014021B1028842F08002A6
:10148000028004E002884FF67F731A4002807047A2
:1014900021B1028842F00102028004E002884FF686
:1014A000FE731A400280704731B1B0F8442042F414
:1014B0000042A0F8442005E0B0F84420C2F30E0238
:1014C000A0F844207047000070B5002400220023DB
:1014D000058C4FF6FE7635400584028C8388048B9C
:1014E0004FF68F752C40B51E2C400D882C43751E71
:1014F0002A400D892A434D882A43144DA8420BD017
:10150000134DA84208D0134DA84205D0124DA84251
:1015100002D0124DA84213D14FF6F7752A404D89DB
:101520002A434FF6FB752A408D882A434FF6FF6504
:101530002B404FF6FF552B408D892B43CD892B43F4
:1015400083800483CD888586028470BD002C014091
:101550000034014000400140004401400048014087
:101560000A460021018B4FF6F7731940114301839E
:101570007047000070B5002200230024058C4EF651
:10158000FF7635400584038C8488828B48F6FF758E
:101590002A404FF6FF452A400D884FF6FF7606EAAF
:1015A00005252A434DF6FF752B400D8906EA0535C2
:1015B0002B434D8806EA05352B430B4DA84202D03C
:1015C0000A4DA84208D14BF6FF752C408D894FF685
:1015D000FF7606EA85152C4384808283CD88A0F8A7
:1015E0004050038470BD0000002C014000340140D5
:1015F0000A460021818B4FF2FF7319404FF6FF73AB
:1016000003EA022319438183704781867047A0F85B
:1016100040107047002202881D4B98420ED01D4B8F
:1016200098420BD0B0F1804F08D01B4B984205D0A8
:101630001A4B984202D01A4B984204D14FF68F733E
:101640001A404B881A43174B984207D0164B9842C2
:1016500004D04FF6FF431A40CB881A4302808B8890
:1016600083850B8803850A4B98420BD0094B98421F
:1016700008D00E4B984205D00D4B984202D00D4B2E
:10168000984201D10B7A03860123838270470000C0
:10169000002C0140003401400004004000080040DC
:1016A000000C0040001000400014004000400140C9
:1016B000004401400048014010B540F225511D484A
:1016C00000F09DF810B31B4800F054F9C4B21A485A
:1016D000008800F40040C8B91748008800F4804032
:1016E00060B10A2C03D000201349088020E0124882
:1016F000008840F400401049088019E00D2C06D104
:101700000D48008840F480400B49088010E00A48EA
:101710000088C0F30D0009490C5407480088401C9C
:101720000549088008460088C72801DD0020088098
:1017300010BD00000038014024000020A800002057
:1017400010B540F225511C4800F059F890B11A48E4
:1017500000F010F9C4B219481949097844541848DE
:101760000078401C1649087008460078402801DDC2
:101770000020087040F224410F4800F040F8D0B13A
:101780000D4800880F4908800B48001D008808801C
:101790000B4800780C49087008484078A22803D00C
:1017A00000200749087006E0FEF7ACFE00F052FA90
:1017B00000200349087010BD00440040680000206C
:1017C00000000020020000200400002021B18289D6
:1017D00042F40052828104E082894DF6FF731A4080
:1017E0008281704702460020B1F5007F00D100BF22
:1017F00013880B400BB1012000E00020704770B54A
:101800000246002400230025002040F66A16B1425B
:1018100000D100BFC1F3421501F01F03012606FAF3
:1018200003F3012D02D19689334006E0022D02D147
:10183000168A334001E0968A33400C12012606FADC
:1018400004F41688344013B10CB1012000E00020EC
:1018500070BDF0B50346002400260025002040F6A8
:101860006A17B94200D100BF1846C1F3421401F013
:101870001F06012707FA06F5012C01D10C3004E000
:10188000022C01D1103000E014301AB107682F4348
:10189000076002E00768AF430760F0BD2DE9F0473D
:1018A00086B005460E460024A24600BFA14600278A
:1018B000B08900B100BF2F462C8A4CF6FF7004405F
:1018C000F08804432C82AC894EF6F3100440B088B3
:1018D00031890843718908430443AC81AC8A4FF6CF
:1018E000FF400440B0890443AC8201A8FFF7FAFA34
:1018F0001F48874202D1DDF810A001E0DDF80CA0FE
:10190000A88900F4004040B10AEBCA0000EB0A10BD
:1019100031684900B0FBF1F807E00AEBCA0000EBC0
:101920000A1031688900B0FBF1F86420B8FBF0F0D0
:1019300004012009642101FB1089A88900F40040FA
:1019400040B1322000EBC900B0FBF1F000F007001D
:10195000044308E0322000EB09106421B0FBF1F0F1
:1019600000F00F0004432C8106B0BDE8F0870000B2
:101970000038014001468888C0F308007047C1F371
:1019800008028280704700BFFEE7014600BF704733
:1019900010B567480078DD286FD019DCD6286DD0E7
:1019A0000EDCD3286BD006DC11281FD0CC2867D0E2
:1019B000CD2871D19BE0D42833D0D528F9D148E087
:1019C000D738062868D2DFE800F0776338507F8385
:1019D000DF381128F6D2DFE800F04C1C203438A59F
:1019E00054A5282C4044A560A5737F00012080F3F6
:1019F000138800BF00BF4F48006800F4E0604E4904
:101A00000843001D4B490860BFF34F8F00BF00BF64
:101A1000FEE70020FFF71EF985E00120FFF71AF925
:101A200081E00220FFF716F97DE00020FFF7A2F920
:101A300079E00120FFF79EF975E00220FFF79AF99F
:101A400071E00020FEF71AFC6DE00120FEF716FCA5
:101A500069E00220FEF712FC65E00020FEF788FC3A
:101A600061E00120FEF784FC5DE00220FEF780FCCF
:101A700059E00120FEF7D2FE55E015E018E04EE0F7
:101A80002EE00020FEF7ECFF0020FEF769FE4AE0A2
:101A90000120FEF765FE46E044E00020FFF77EF8F7
:101AA0000020FEF7CDFE3EE00120FEF7C9FE3AE041
:101AB0000120FEF7D5FF36E00220FEF7D1FF32E02D
:101AC0000320FEF7CDFF2EE00120FFF767F82AE0A4
:101AD0000220FFF763F826E00320FFF75FF822E01B
:101AE0000120164908601649C1F894011BE0002046
:101AF000124908601249C1F894010C2000F092FAD2
:101B000008211048FFF7FAFA052000F07DF80C20B4
:101B100000F088FA08210B48FFF7F0FA03E0FFF71E
:101B20007DFB00E000BF00BF00F00EF810BD00001C
:101B3000650000200CED00E00000FA059C01214248
:101B4000000022425A000020002002490870024989
:101B500008707047640000206500002000200249E2
:101B60000870024908707047640000206600002079
:101B700000BF00BF00BF704710B56FF00400FFF753
:101B8000D7FB0A4800680A49B0FBF1F00949087020
:101B90000846007800EB4001C1EBC0104FF6FF7122
:101BA00001EAC0000449088010BD000008000020C0
:101BB00000127A001C0000201E0000200146114A7D
:101BC00012884A434FF0E0235A6100229A611A4674
:101BD000126942F001021A6100BF4FF0E022106961
:101BE00000F001021AB100F48032002AF5D04FF063
:101BF000E022126922F001024FF0E0231A61002274
:101C00009A6170471E0000200146114A12784A432B
:101C10004FF0E0235A6100229A611A46126942F09D
:101C200001021A6100BF4FF0E022106900F00102CA
:101C30001AB100F48032002AF5D04FF0E022126988
:101C400022F001024FF0E0231A6100229A617047EE
:101C50001C00002010B5A8480078AF2875D1A64810
:101C60004078A228FAD1A44880780028F6D1A34869
:101C70000088A34909888842F0D19F48C4780A2087
:101C8000FFF7C2FFDD2C6FD01FDCD52C70D012DC2B
:101C9000CD2C6BD008DC112C26D0CA2C67D0CB2CD5
:101CA00074D0CC2C73D1E0E0D22C71D0D32C70D076
:101CB000D42CF7D12DE0A4F1D600072867D2DFE8B5
:101CC00000F09AA1853D70B7BE00A4F1DE00122895
:101CD000F4D2DFE800F0DF6D10173B42E6745C25BC
:101CE0002C545FED825C9EBB012086490870112058
:101CF00085490870F9E0012082490870E020824996
:101D00000870F2E001207F490870E1207E490870E8
:101D1000EBE001207B490870D4207B490870E4E0A7
:101D2000012078490870E72077490870DDE001203C
:101D300074490870E82074490870D6E001207149A0
:101D40000870D92070490870CFE0D0E001206D49BB
:101D50000870E2206C490870C7E0012069490870EA
:101D6000E32069490870C0E03EE001E084E0A6E0BD
:101D7000012064490870D52063490870B5E001204E
:101D800060490870E92060490870AEE09EE0ABE071
:101D9000A3E078E001205B490870EA205A49087006
:101DA000A3E0012057490870DA20574908709CE0E9
:101DB000012054490870DF205349087095E0012044
:101DC00050490870E520504908708EE001204D49C7
:101DD0000870D8204C49087087E0012049490870F4
:101DE000EC204949087080E0012046490870DD2058
:101DF0004549087079E0012042490870D6204249DF
:101E0000087072E001203F490870D7203E490870F1
:101E10006BE0394840793849097900EB01203B49AA
:101E20000880012037490870EE20374908705CE0CF
:101E3000012034490870DB203349087055E0012047
:101E400030490870DC20304908704EE02A4840795B
:101E50002949097900EB01202C49088001202949F2
:101E60000870EF20284908703FE0012025490870DC
:101E7000CC202549087038E0012022490870CD2087
:101E80002149087031E001201E490870D3201E4905
:101E900008702AE002201B490870DE201C490870E7
:101EA00023E0022017490870E420194908701CE05B
:101EB000022014490870EB201549087015E0022033
:101EC00010490870CA20124908700EE002200D491E
:101ED0000870CB200E49087007E0022009490870FD
:101EE000D2200B49087000E000BF00BF00BF0520F2
:101EF000FFF78AFE10BD00004F0000204A000020BE
:101F000048000020640000206500002062000020DE
:101F100066000020FFF730FE4FF4165000F06CF919
:101F20004FF4E130FFF70CF932214FF4E150FFF7A5
:101F300045FAFEF7EFFBFEF727FDFEF749FD00F03F
:101F400049F8FEF793FAFEF7E5FDFFF755F936E09D
:101F50001B480068C0431B49C1F894013220FFF7B9
:101F60002DFE19480078012804D0022808D0032843
:101F700012D10BE0FFF70CFD0520FFF745FE0CE04A
:101F800000F00AF90520FFF73FFE06E0FFF7F0FD3D
:101F90000520FFF739FE00E000BF00BF0B480068D6
:101FA000012803D141020A48FEF789FB0748001FB8
:101FB0000068012803D180210548FEF780FBC7E7B0
:101FC0009481214200802142640000202C81224221
:101FD0000010014008B501211020FEF773FF4FF4F7
:101FE0007070ADF8000010208DF8030003208DF80C
:101FF000020069460A48FEF7D7FA4FF40071084814
:10200000FEF75DFB4FF480710548FEF758FB802119
:102010000348FEF754FB40210148FEF750FB08BD82
:102020000010014070B50546AF203E490870A2205F
:10203000487000208870A81E0C2867D2DFE800F0E6
:10204000060E161E262E363E464E565EE4203549B6
:10205000C870012008710020487158E0EB20314918
:10206000C870012008710020487150E0CA202D4935
:10207000C870012008710020487148E0CB20294930
:10208000C870012008710020487140E0D520254922
:10209000C870102008710020487138E0DA2021490A
:1020A000C870102008710020487130E0D8201D4908
:1020B000C870102008710020487128E0DD201949FF
:1020C000C870102008710020487120E0D420154904
:1020D000C870102008710020487118E0D9201149FB
:1020E000C870102008710020487110E0CD200D4903
:1020F000C870102008710020487108E0D2200949FA
:10210000C870102008710020487100E000BF00BFB7
:1021100006210448FEF7D8FA0446201201498871C6
:10212000CC7170BD5A00002010B506211748FEF78B
:10213000CBFA174908801548C0791449897900EB12
:1021400001201449088011480078AF2801D00020F0
:1021500010BD0E48807808B10120F9E70D480088CD
:102160000B490988884201D00220F1E7074800782E
:10217000AF2808D105484078A22804D103488078C8
:1021800008B90320E4E70020E2E70000680000202F
:10219000480000204A00002010B516480078DE28CC
:1021A0000CD006DCCA2817D0CB2819D0D2281ED1D3
:1021B0001AE0E42808D0EB2819D109E00020FEF746
:1021C0002DFBFEF7F9FE13E00320FEF757F80FE0B2
:1021D0000320FEF7CDF80BE00220FEF7C1FA07E07E
:1021E0000220FEF72DFB03E0FEF7E6FE00E000BF55
:1021F00000BF10BD6600002010B586B00446012166
:1022000044F20400FEF75EFE4FF40070ADF81400D7
:1022100003208DF8160018208DF8170005A91C481A
:10222000FEF7C2F94FF48060ADF8140004208DF879
:10223000170005A91648FEF7B7F925208DF800000C
:1022400003208DF801008DF8020001208DF80300B5
:102250006846FEF757FB01940020ADF80800ADF882
:102260000A00ADF80C00ADF810000C20ADF80E001F
:1022700001A90848FFF712FB012240F22551054849
:10228000FFF7E7FA01210348FFF7A0FA06B010BDF7
:10229000000801400038014000C1814001C0804178
:1022A00001C0804100C1814001C0804100C1814026
:1022B00000C1814001C0804101C0804100C1814016
:1022C00000C1814001C0804100C1814001C0804106
:1022D00001C0804100C1814001C0804100C18140F6
:1022E00000C1814001C0804100C1814001C08041E6
:1022F00001C0804100C1814000C1814001C08041D6
:1023000001C0804100C1814001C0804100C18140C5
:1023100000C1814001C0804101C0804100C18140B5
:1023200000C1814001C0804100C1814001C08041A5
:1023300001C0804100C1814000C1814001C0804195
:1023400001C0804100C1814001C0804100C1814085
:1023500000C1814001C0804100C1814001C0804175
:1023600001C0804100C1814001C0804100C1814065
:1023700000C1814001C0804101C0804100C1814055
:1023800000C1814001C0804100C1814001C0804145
:1023900001C0804100C1814000C0C101C30302C22D
:1023A000C60607C705C5C404CC0C0DCD0FCFCE0E95
:1023B0000ACACB0BC90908C8D81819D91BDBDA1A05
:1023C0001EDEDF1FDD1D1CDC14D4D515D71716D675
:1023D000D21213D311D1D010F03031F133F3F232E5
:1023E00036F6F737F53534F43CFCFD3DFF3F3EFE55
:1023F000FA3A3BFB39F9F83828E8E929EB2B2AEAC5
:10240000EE2E2FEF2DEDEC2CE42425E527E7E62634
:1024100022E2E323E12120E0A06061A163A3A262A4
:1024200066A6A767A56564A46CACAD6DAF6F6EAE14
:10243000AA6A6BAB69A9A86878B8B979BB7B7ABA84
:10244000BE7E7FBF7DBDBC7CB47475B577B7B676F4
:1024500072B2B373B17170B0509091519353529264
:1024600096565797559594549C5C5D9D5F9F9E5ED4
:102470005A9A9B5B99595898884849894B8B8A4A44
:102480004E8E8F4F8D4D4C8C4484854587474686B4
:102490008242438341818040B8240008000000202C
:1024A000680000006C01000820250008680000207A
:1024B000680700008801000800000000000000001C
:1024C00000A24A0400000000000000000102030412
:1024D00006070809000000000000000000000000DE
:1024E00000000102030401020304060708090204B4
:1024F000060800000000E803E803000000000000F8
:1025000000000000000000000000000000000000CB
:1025100000000000000000000000000000000000BB
:04000005080001CD21
:00000001FF
